{
  "contractName": "Betting",
  "abi": [
    {
      "inputs": [],
      "stateMutability": "nonpayable",
      "type": "constructor"
    },
    {
      "inputs": [],
      "name": "maxbets",
      "outputs": [
        {
          "internalType": "uint256",
          "name": "",
          "type": "uint256"
        }
      ],
      "stateMutability": "view",
      "type": "function",
      "constant": true
    },
    {
      "inputs": [],
      "name": "minbet",
      "outputs": [
        {
          "internalType": "uint256",
          "name": "",
          "type": "uint256"
        }
      ],
      "stateMutability": "view",
      "type": "function",
      "constant": true
    },
    {
      "inputs": [],
      "name": "numberofbets",
      "outputs": [
        {
          "internalType": "uint256",
          "name": "",
          "type": "uint256"
        }
      ],
      "stateMutability": "view",
      "type": "function",
      "constant": true
    },
    {
      "inputs": [],
      "name": "owner",
      "outputs": [
        {
          "internalType": "address payable",
          "name": "",
          "type": "address"
        }
      ],
      "stateMutability": "view",
      "type": "function",
      "constant": true
    },
    {
      "inputs": [
        {
          "internalType": "address",
          "name": "",
          "type": "address"
        }
      ],
      "name": "playerinfo",
      "outputs": [
        {
          "internalType": "uint256",
          "name": "amountbet",
          "type": "uint256"
        },
        {
          "internalType": "uint256",
          "name": "teamSelected",
          "type": "uint256"
        }
      ],
      "stateMutability": "view",
      "type": "function",
      "constant": true
    },
    {
      "inputs": [
        {
          "internalType": "uint256",
          "name": "",
          "type": "uint256"
        }
      ],
      "name": "players",
      "outputs": [
        {
          "internalType": "address payable",
          "name": "",
          "type": "address"
        }
      ],
      "stateMutability": "view",
      "type": "function",
      "constant": true
    },
    {
      "inputs": [],
      "name": "totalBetOne",
      "outputs": [
        {
          "internalType": "uint256",
          "name": "",
          "type": "uint256"
        }
      ],
      "stateMutability": "view",
      "type": "function",
      "constant": true
    },
    {
      "inputs": [],
      "name": "totalBetTwo",
      "outputs": [
        {
          "internalType": "uint256",
          "name": "",
          "type": "uint256"
        }
      ],
      "stateMutability": "view",
      "type": "function",
      "constant": true
    },
    {
      "inputs": [],
      "name": "kill",
      "outputs": [],
      "stateMutability": "nonpayable",
      "type": "function"
    },
    {
      "inputs": [
        {
          "internalType": "address",
          "name": "player",
          "type": "address"
        }
      ],
      "name": "checkPlayerExists",
      "outputs": [
        {
          "internalType": "bool",
          "name": "",
          "type": "bool"
        }
      ],
      "stateMutability": "view",
      "type": "function",
      "constant": true
    },
    {
      "inputs": [
        {
          "internalType": "uint8",
          "name": "_teamselected",
          "type": "uint8"
        }
      ],
      "name": "bet",
      "outputs": [],
      "stateMutability": "payable",
      "type": "function",
      "payable": true
    },
    {
      "inputs": [
        {
          "internalType": "uint16",
          "name": "teamwinner",
          "type": "uint16"
        }
      ],
      "name": "distributeprizes",
      "outputs": [],
      "stateMutability": "nonpayable",
      "type": "function"
    },
    {
      "inputs": [],
      "name": "amountone",
      "outputs": [
        {
          "internalType": "uint256",
          "name": "",
          "type": "uint256"
        }
      ],
      "stateMutability": "view",
      "type": "function",
      "constant": true
    },
    {
      "inputs": [],
      "name": "amounttwo",
      "outputs": [
        {
          "internalType": "uint256",
          "name": "",
          "type": "uint256"
        }
      ],
      "stateMutability": "view",
      "type": "function",
      "constant": true
    }
  ],
  "bytecode": "0x60806040526103e860055534801561001657600080fd5b50336000806101000a81548173ffffffffffffffffffffffffffffffffffffffff021916908373ffffffffffffffffffffffffffffffffffffffff160217905550655af3107a4000600181905550610e42806100736000396000f3fe6080604052600436106100dd5760003560e01c8063b405ba0f1161007f578063cc258d3911610059578063cc258d391461029f578063d0821b0e146102ca578063edaf9796146102e6578063f71d96cb14610311576100dd565b8063b405ba0f1461020b578063be96031e14610236578063c2b5a50414610274576100dd565b806364027fbb116100bb57806364027fbb1461015f5780637863117e1461018a5780638da5cb5b146101b5578063a4bcc5ff146101e0576100dd565b806314a8393d146100e25780634081d9161461010b57806341c0e1b514610148575b600080fd5b3480156100ee57600080fd5b5061010960048036038101906101049190610a0f565b61034e565b005b34801561011757600080fd5b50610132600480360381019061012d9190610a9a565b610658565b60405161013f9190610ae2565b60405180910390f35b34801561015457600080fd5b5061015d610707565b005b34801561016b57600080fd5b50610174610796565b6040516101819190610b16565b60405180910390f35b34801561019657600080fd5b5061019f61079c565b6040516101ac9190610b16565b60405180910390f35b3480156101c157600080fd5b506101ca6107a2565b6040516101d79190610b52565b60405180910390f35b3480156101ec57600080fd5b506101f56107c6565b6040516102029190610b16565b60405180910390f35b34801561021757600080fd5b506102206107cc565b60405161022d9190610b16565b60405180910390f35b34801561024257600080fd5b5061025d60048036038101906102589190610a9a565b6107d6565b60405161026b929190610b6d565b60405180910390f35b34801561028057600080fd5b506102896107fa565b6040516102969190610b16565b60405180910390f35b3480156102ab57600080fd5b506102b4610800565b6040516102c19190610b16565b60405180910390f35b6102e460048036038101906102df9190610bcf565b610806565b005b3480156102f257600080fd5b506102fb610963565b6040516103089190610b16565b60405180910390f35b34801561031d57600080fd5b5061033860048036038101906103339190610c28565b61096d565b6040516103459190610b52565b60405180910390f35b6103566109ac565b60008060008080600080600090505b60068054905081101561046f576006818154811061038657610385610c55565b5b9060005260206000200160009054906101000a900473ffffffffffffffffffffffffffffffffffffffff1691508861ffff16600760008473ffffffffffffffffffffffffffffffffffffffff1673ffffffffffffffffffffffffffffffffffffffff16815260200190815260200160002060010154141561045c578188886103e8811061041657610415610c55565b5b602002019073ffffffffffffffffffffffffffffffffffffffff16908173ffffffffffffffffffffffffffffffffffffffff1681525050868061045890610cb3565b9750505b808061046790610cb3565b915050610365565b5060018861ffff16141561048c5760035494506002549350610497565b600254945060035493505b60005b868110156105e357600073ffffffffffffffffffffffffffffffffffffffff1688826103e881106104ce576104cd610c55565b5b602002015173ffffffffffffffffffffffffffffffffffffffff16146105d05787816103e8811061050257610501610c55565b5b60200201519350600760008573ffffffffffffffffffffffffffffffffffffffff1673ffffffffffffffffffffffffffffffffffffffff16815260200190815260200160002060000154925087816103e8811061056257610561610c55565b5b602002015173ffffffffffffffffffffffffffffffffffffffff166108fc868861058c9190610d2b565b60016105989190610d5c565b856105a39190610db2565b9081150290604051600060405180830381858888f193505050501580156105ce573d6000803e3d6000fd5b505b80806105db90610cb3565b91505061049a565b50600760008273ffffffffffffffffffffffffffffffffffffffff1673ffffffffffffffffffffffffffffffffffffffff168152602001908152602001600020600080820160009055600182016000905550506000945060009350600060028190555060006003819055505050505050505050565b600080600090505b6006805490508110156106fc578273ffffffffffffffffffffffffffffffffffffffff166006828154811061069857610697610c55565b5b9060005260206000200160009054906101000a900473ffffffffffffffffffffffffffffffffffffffff1673ffffffffffffffffffffffffffffffffffffffff1614156106e9576001915050610702565b80806106f490610cb3565b915050610660565b50600090505b919050565b60008054906101000a900473ffffffffffffffffffffffffffffffffffffffff1673ffffffffffffffffffffffffffffffffffffffff163373ffffffffffffffffffffffffffffffffffffffff1614156107945760008054906101000a900473ffffffffffffffffffffffffffffffffffffffff1673ffffffffffffffffffffffffffffffffffffffff16ff5b565b60015481565b60025481565b60008054906101000a900473ffffffffffffffffffffffffffffffffffffffff1681565b60055481565b6000600354905090565b60076020528060005260406000206000915090508060000154908060010154905082565b60035481565b60045481565b61080f33610658565b1561081957600080fd5b60015434101561082857600080fd5b34600760003373ffffffffffffffffffffffffffffffffffffffff1673ffffffffffffffffffffffffffffffffffffffff168152602001908152602001600020600001819055508060ff16600760003373ffffffffffffffffffffffffffffffffffffffff1673ffffffffffffffffffffffffffffffffffffffff168152602001908152602001600020600101819055506006339080600181540180825580915050600190039060005260206000200160009091909190916101000a81548173ffffffffffffffffffffffffffffffffffffffff021916908373ffffffffffffffffffffffffffffffffffffffff16021790555060018160ff16141561094657346002600082825461093a9190610d5c565b92505081905550610960565b34600360008282546109589190610d5c565b925050819055505b50565b6000600254905090565b6006818154811061097d57600080fd5b906000526020600020016000915054906101000a900473ffffffffffffffffffffffffffffffffffffffff1681565b60405180617d0001604052806103e890602082028036833780820191505090505090565b600080fd5b600061ffff82169050919050565b6109ec816109d5565b81146109f757600080fd5b50565b600081359050610a09816109e3565b92915050565b600060208284031215610a2557610a246109d0565b5b6000610a33848285016109fa565b91505092915050565b600073ffffffffffffffffffffffffffffffffffffffff82169050919050565b6000610a6782610a3c565b9050919050565b610a7781610a5c565b8114610a8257600080fd5b50565b600081359050610a9481610a6e565b92915050565b600060208284031215610ab057610aaf6109d0565b5b6000610abe84828501610a85565b91505092915050565b60008115159050919050565b610adc81610ac7565b82525050565b6000602082019050610af76000830184610ad3565b92915050565b6000819050919050565b610b1081610afd565b82525050565b6000602082019050610b2b6000830184610b07565b92915050565b6000610b3c82610a3c565b9050919050565b610b4c81610b31565b82525050565b6000602082019050610b676000830184610b43565b92915050565b6000604082019050610b826000830185610b07565b610b8f6020830184610b07565b9392505050565b600060ff82169050919050565b610bac81610b96565b8114610bb757600080fd5b50565b600081359050610bc981610ba3565b92915050565b600060208284031215610be557610be46109d0565b5b6000610bf384828501610bba565b91505092915050565b610c0581610afd565b8114610c1057600080fd5b50565b600081359050610c2281610bfc565b92915050565b600060208284031215610c3e57610c3d6109d0565b5b6000610c4c84828501610c13565b91505092915050565b7f4e487b7100000000000000000000000000000000000000000000000000000000600052603260045260246000fd5b7f4e487b7100000000000000000000000000000000000000000000000000000000600052601160045260246000fd5b6000610cbe82610afd565b91507fffffffffffffffffffffffffffffffffffffffffffffffffffffffffffffffff821415610cf157610cf0610c84565b5b600182019050919050565b7f4e487b7100000000000000000000000000000000000000000000000000000000600052601260045260246000fd5b6000610d3682610afd565b9150610d4183610afd565b925082610d5157610d50610cfc565b5b828204905092915050565b6000610d6782610afd565b9150610d7283610afd565b9250827fffffffffffffffffffffffffffffffffffffffffffffffffffffffffffffffff03821115610da757610da6610c84565b5b828201905092915050565b6000610dbd82610afd565b9150610dc883610afd565b9250817fffffffffffffffffffffffffffffffffffffffffffffffffffffffffffffffff0483118215151615610e0157610e00610c84565b5b82820290509291505056fea2646970667358221220de300abed908eeeed51822c1dee276ad977a4a28ce3c58fa08dfd42faae6076a64736f6c634300080a0033",
  "immutableReferences": {},
  "source": "pragma solidity >0.4.99;\ncontract Betting{\n    address payable public owner;\n    uint256 public minbet;\n    uint256 public totalBetOne;\n    uint256 public totalBetTwo;\n    uint256 public numberofbets;\n    uint256 public maxbets = 1000;\n\n    address payable [] public players;\n\n    struct player{\n        uint256 amountbet;\n        uint256 teamSelected;\n    }\n    mapping(address => player) public playerinfo;\n\n    constructor() public {\n        owner = payable(msg.sender);\n        minbet = 100000000000000;\n    }\n\n\nfunction kill() public {\n    if(msg.sender == owner) selfdestruct(owner);\n}\n\nfunction checkPlayerExists(address player) public view returns(bool){\n    for(uint256 i=0 ; i<players.length ; i++)\n    {\n        if(players[i] == player) return true;\n    }\n    return false;\n}\n\nfunction bet(uint8 _teamselected) public payable{\n    require(!checkPlayerExists(msg.sender));\n    require(msg.value >= minbet);\n\n    playerinfo[msg.sender].amountbet = msg.value;\n    playerinfo[msg.sender].teamSelected = _teamselected;\n    players.push(payable(msg.sender));\n\n    if(_teamselected == 1)\n    {\n        totalBetOne += msg.value;\n    }\n    else\n    {\n        totalBetTwo += msg.value;\n    }\n}\n\nfunction distributeprizes(uint16 teamwinner) public{\n    address payable[1000] memory winners;\n\n    uint256 count = 0;\n    uint256 loserbet = 0;\n    uint256 winnerbet = 0;\n\n    address add;\n    uint256 bet;\n    address payable playeraddress;\n\n    for(uint256 i=0 ; i<players.length ; i++)\n    {\n        playeraddress = players[i];\n\n        if(playerinfo[playeraddress].teamSelected == teamwinner)\n        {\n            winners[count] = playeraddress;\n            count++;\n        }\n    }\n\n    if(teamwinner == 1)\n    {\n        loserbet = totalBetTwo;\n        winnerbet = totalBetOne;\n    }\n    else\n    {\n        loserbet = totalBetOne;\n        winnerbet = totalBetTwo;\n    }\n\n    for(uint256 i=0 ; i<count ; i++)\n    {\n        if(winners[i] != address(0))\n        {\n            add = winners[i];\n            bet = playerinfo[add].amountbet;\n            winners[i].transfer(bet * (1 + (loserbet/winnerbet)));\n        }\n    }\n\n    delete playerinfo[playeraddress];\n    loserbet = 0;\n    winnerbet = 0;\n    totalBetOne = 0;\n    totalBetTwo = 0;\n}\n\nfunction amountone() public view returns(uint256){\n    return totalBetOne;\n}\n\nfunction amounttwo() public view returns(uint256){\n    return totalBetTwo;\n}\n\n}\n",
  "sourcePath": "/home/yash/bet-eth/contracts/Betting.sol",
  "compiler": {
    "name": "solc",
    "version": "0.8.10+commit.fc410830.Emscripten.clang"
  },
  "schemaVersion": "3.4.4",
  "updatedAt": "2022-01-05T09:53:39.885Z",
  "networkType": "ethereum",
  "devdoc": {
    "kind": "dev",
    "methods": {},
    "version": 1
  },
  "userdoc": {
    "kind": "user",
    "methods": {},
    "version": 1
  }
}